:107800000C94343C0C94513C0C94513C0C94513CE1
:107810000C94513C0C94513C0C94513C0C94513CB4
:107820000C94513C0C94513C0C94513C0C94513CA4
:107830000C94513C0C94513C0C94513C0C94513C94
:107840000C94513C0C94513C0C94513C0C94513C84
:107850000C94513C0C94513C0C94513C0C94513C74
:107860000C94513C0C94513C11241FBECFEFD8E036
:10787000DEBFCDBF11E0A0E0B1E0EEECFDE702C05D
:1078800005900D92A230B107D9F712E0A2E0B1E065
:1078900001C01D92AD30B107E1F70E940B3D0C9481
:1078A000E53E0C94003C9091C00095FFFCCF809386
:1078B000C6000895CF93982F959595959595959594
:1078C000905D8F708A3014F0C7E501C0C0E3C80F27
:1078D000892F0E94533C8C2FCF910C94533CCF9214
:1078E000DF92EF92FF92C12CD12C76018091C000E3
:1078F00087FD13C08FEFC81AD80AE80AF80A81E298
:10790000C81681EAD80687E0E806F10478F3E0912A
:107910000201F09103010995E9CF8091C600FF9023
:10792000EF90DF90CF900895CF930E946F3CC82FC7
:107930000E94533CC13614F089EA03C0C0331CF0E6
:1079400080ED8C0F01C08C2FCF910895CF930E94B2
:10795000943CC82F0E94943C90E1C99F800D112453
:10796000CF910895CF93C82FCC2321F00E946F3C74
:10797000C150FACFCF910895CF93C82F0E946F3C8A
:10798000803251F484E10E94533C8C2F0E94533C7E
:1079900080E1CF910C94533C809104018F5F8093E0
:1079A0000401853031F4E0910201F0910301CF919F
:1079B0000994CF9108950E946F3C803231F484E1A4
:1079C0000E94533C80E10C94533C809104018F5FF2
:1079D00080930401853029F4E0910201F0910301C4
:1079E000099408958823B1F02D9A2FEF30E792E0A3
:1079F000215030409040E1F700C000002D982FEF5B
:107A000030E792E0215030409040E1F700C00000A4
:107A10008150E8CF0895000082E08093C00080E1AB
:107A20008093C4001092C50088E18093C10086E075
:107A30008093C2005098589A259A81E00E94F23CA7
:107A400080E00E94533CFF24F3940E946F3C8033FB
:107A500009F442C08133E1F40E946F3C803209F0A6
:107A6000A6C184E10E94533C81E40E94533C86E518
:107A70000E94533C82E50E94533C80E20E94533CAA
:107A800089E40E94533C83E50E94533C80E586C113
:107A9000803439F40E946F3C8638F0F00E946F3CCD
:107AA0001BC08134A1F40E946F3C803811F482E045
:107AB00003C0813821F481E00E94BC3CC6CF8238EB
:107AC00011F480E1F9CF8839C9F583E0F5CF82342C
:107AD00031F484E10E94B23C0E94DB3CB6CF853495
:107AE00011F485E0F7CF982F9D7F9035A9F381356C
:107AF00099F3853549F40E946F3C809306010E94FA
:107B00006F3C80930701E8CF8635D1F40E946F3C2B
:107B1000803389F40E946F3C0E946F3C182F0E94B2
:107B20006F3C111102C08EE1C7CF113011F485E90D
:107B3000C3CF8FE0C1CF83E00E94B23C80E0BCCFD6
:107B4000843609F0C6C00E946F3C809309020E94EF
:107B50006F3C8093080280910C028E7F80930C0210
:107B60000E946F3C853429F480910C0281608093DF
:107B70000C0208E011E0809108029091090298013E
:107B8000285031402817390730F40E946F3CF80123
:107B900081938F01F0CF0E946F3C803209F007C1C2
:107BA00020910C02809106019091070120FF29C0CD
:107BB000880F991F9093070180930601E8E0F1E098
:107BC00080910802909109029F01285031402817A6
:107BD000390708F07CC0F999FECF80910601909199
:107BE000070192BD81BD819180BDFA9AF99A809179
:107BF0000601909107010196909307018093060179
:107C0000DFCF20910701220F220B2F2120930B029F
:107C1000880F991F909307018093060180910802B5
:107C200080FF09C08091080290910902019690930B
:107C3000090280930802F894F999FECF1127E09188
:107C40000601F0910701C8E0D1E08091080290910F
:107C50000902103091F40091570001700130D9F3FE
:107C600003E000935700E895009157000170013040
:107C7000D9F301E100935700E8950990199000911C
:107C8000570001700130D9F301E000935700E895E7
:107C90001395103498F011270091570001700130AE
:107CA000D9F305E000935700E89500915700017063
:107CB0000130D9F301E100935700E895329602971D
:107CC00009F0C7CF103011F00296E5CF112484E1FE
:107CD00065C0843709F052C00E946F3C809309024E
:107CE0000E946F3C809308028091060190910701E9
:107CF000880F991F90930701809306010E946F3CA3
:107D000090910C02853411F4916001C09E7F909394
:107D10000C020E946F3C803209F097CE84E10E94F1
:107D2000533C00E010E0809108029091090208178E
:107D30001907B0F580910C0280FF0BC0F999FECFB6
:107D4000809106019091070192BD81BDF89A80B59E
:107D500007C081FD07C0E0910601F0910701849101
:107D60000E94533C809106019091070101969093E7
:107D70000701809306010F5F1F4FD5CF8537A1F410
:107D80000E946F3C803299F484E10E94533C8EE162
:107D90000E94533C85E90E94533C8FE00E94533C73
:107DA00080E10E94533C51CE863709F4C7CE8091C2
:107DB00004018F5F80930401853009F046CEE09185
:0E7DC0000201F0910301099540CEF894FFCF27
:027DCE00800033
:040000030000780081
:00000001FF
